S00E000050425F74776F2E73726563CB
S11300000C9462000C946C000C946C000C946C00C6
S11300100C946C000C946C000C946C000C946C00AC
S11300200C946C000C946C000C946C000C946C009C
S11300300C946C000C946C000C946C000C946C008C
S11300400C946C000C946C000C946C000C946C007C
S11300500C946C000C946C000C946C000C946C006C
S11300600C946C000C946C000C946C000C946C005C
S11300700C946C000C946C000C946C000C946C004C
S11300800C946C000C946C000C946C000C946C003C
S11300900C946C000C946C000C946C000C946C002C
S11300A00C946C000C946C000C946C000C946C001C
S11300B00C946C0086008D0094009B00A200A900A3
S11300C0B000B70011241FBECFEFD8E0DEBFCDBF14
S11300D00E94D1000C94F6000C940000439A0895F9
S11300E043980895449A089544980895459A089524
S11300F0459808953A98429A089590E08830910579
S1130100E0F5FC01E65AFF4F0C94F0000E947000E9
S11301100E9474000E94780008950E9470000E945A
S113012074000E94760008950E9470000E9472007C
S11301300E94780008950E9470000E9472000E943C
S1130140760008950E946E000E9474000E94780058
S113015008950E946E000E9474000E947600089523
S11301600E946E000E9472000E94780008950E940E
S11301706E000E9472000E947600089587B1886321
S113018087B980E00E947D0008950E94BE000E940D
S11301907A00089586B182FB882780F991E0892747
S11301A008950E94C5003D9A1F9908C00E94CA0084
S11301B0882321F081E00E947D00F6CF0E94CA00CE
S11301C0882321F084E00E947D00EECF1F9904C0B3
S11301D082E00E947D00E8CF80E00E947D00E4CFB1
S11301E0EE0FFF1F0590F491E02D0994F894FFCFD2
S9030000FC
